:020000040800F2
:1000000000000220B1050008D90D0008DB0D000832
:10001000DD0D0008DF0D0008E10D00080000000004
:10002000000000000000000000000000E30D0008D8
:10003000E50D000800000000E70D0008E90D0008CC
:100040000106000801060008010600080106000874
:100050000106000801060008F10D0008010600086D
:100060000106000801060008010600080106000854
:100070000106000801060008010600080106000844
:100080000106000801060008010600080000000043
:100090000000000000000000000000000106000851
:1000A00001060008FD0D0008010600080106000811
:1000B0000106000801060008010600080106000804
:1000C0000106000801060008010600080D0E0008E0
:1000D000010600081D0E00082D0E0008000000009B
:1000E00001060008010600080106000800000000E3
:1000F00000000000000000000000000001060008F1
:1001000000000000010600080106000801060008C2
:1001100000000000000000000000000000000000DF
:100120000106000801060008010600080106000893
:1001300001060008000000000000000000000000B0
:1001400000000000000000000000000001060008A0
:100150000106000801060008010600083D0E00081F
:100160000106000801060008000000000000000071
:10017000000000000000000000000000000000007F
:100180000000000001060008000000000000000060
:08019000010600080106000849
:1001A00010B5054C237833B9044B13B10448AFF3B1
:1001B00000800123237010BD9C000020000000007F
:1001C0005C59000808B5034B1BB103490348AFF362
:1001D000008008BD00000000A00000205C5900085D
:1001E00053B94AB9002908BF00281CBF4FF0FF319E
:1001F0004FF0FF3000F072B9ADF1080C6DE904CE9C
:1002000000F006F8DDF804E0DDE9022304B07047F1
:100210002DE9F047089E04468846002B4BD18A42C0
:10022000154667D9B2FA82F24AB1C2F1200701FA43
:1002300002F320FA07F7954047EA030894404FEA93
:10024000154E230CB8FBFEF71FFA85FC0EFB178832
:1002500043EA084307FB0CF1994209D9EB1807F16F
:10026000FF3080F01B81994240F21881023F2B44FD
:100270005B1AA4B2B3FBFEF00EFB103344EA034456
:1002800000FB0CFCA44509D92C1900F1FF3380F0C8
:100290000781A44540F2048102382C4440EA07401B
:1002A000A4EB0C0400271EB1D4400023C6E9004390
:1002B0003946BDE8F0878B4209D9002E00F0EB806B
:1002C0000027C6E9000138463946BDE8F087B3FA91
:1002D00083F7002F47D18B4202D3824200F2FA808B
:1002E000841A61EB030301209846002EE0D0C6E992
:1002F0000048DDE702B9FFDEB2FA82F2002A40F0E0
:100300008F80491B4FEA154E1FFA85F80127B1FB74
:10031000FEFC230C0EFB1C1143EA014308FB0CF10D
:10032000994207D9EB180CF1FF3002D2994200F242
:10033000CD808446591AA3B2B1FBFEF00EFB101417
:1003400043EA044408FB00F8A04507D92C1900F142
:10035000FF3302D2A04500F2B6801846A4EB080491
:1003600040EA0C409FE7C7F1200CBB4022FA0CFE8C
:100370004EEA030E01FA07F420FA0CF521FA0CF309
:100380004FEA1E482543B3FBF8F92C0C08FB193340
:100390001FFA8EFA44EA034309FB0AF49C4202FA6C
:1003A00007F200FA07F10BD91EEB030309F1FF3046
:1003B00080F087809C4240F28480A9F10209734456
:1003C0001B1BADB2B3FBF8F008FB103345EA034446
:1003D00000FB0AFAA24508D91EEB040400F1FF3322
:1003E0006BD2A24569D90238744440EA0940A0FBA7
:1003F0000289A4EB0A044C45C2464B4654D351D063
:10040000002E69D0B1EB0A0564EB030404FA0CFC7E
:10041000FD40FC404CEA0505C6E90054002747E7CB
:10042000C2F1200320FA03F7954001FA02F021FA05
:1004300003F34FEA154E3843010CB3FBFEF71FFAE6
:1004400085F80EFB173341EA034107FB08F38B42A3
:1004500004FA02F407D9691807F1FF3C2FD28B4246
:100460002DD9023F2944CB1A81B2B3FBFEF00EFB1B
:10047000103341EA034100FB08F38B4207D96918A6
:1004800000F1FF3C17D28B4215D902382944C91A12
:1004900040EA07473BE73746304609E70746E7E6C5
:1004A0001846FBE64145ABD2B8EB020A69EB0E02F7
:1004B00001381346A4E76046E9E7184695E7674622
:1004C000D1E781467CE702382C4447E7ACF1020CC7
:1004D0002B442FE7384608E73746E9E6704700BF68
:1004E00010F8012B11F8013B012A28BF9A42F7D0DE
:1004F000D01A7047034613F8012B002AFBD1181AB3
:1005000001387047000000000000000000000000FB
:1005100001F0FF01102A2BDB10F0070F08D010F8B4
:10052000013B013A8B422DD010F0070F42B3F6D1B8
:10053000F0B441EA012141EA014122F007047FF0D1
:1005400000070023F0E80256083C85EA010586EA28
:10055000010685FA47F5A3FA87F586FA47F6A5FA64
:1005600087F68EB9EED1F0BC01F0FF0102F0070270
:1005700032B110F8013B013A83EA010313B1F8D11B
:100580000020704701387047002D06BF35460338FC
:10059000073815F0010F07D1013015F4807F02BF35
:1005A000013015F4C03F0130F0BC0138704700BF86
:1005B000DFF834D0002103E00C4B5B58435004318A
:1005C0000B480C4B42189A42F6D30B4A02E0002328
:1005D00042F8043B094B9A42F9D300F04BFC04F07B
:1005E00097FA00F08BFA704700000220345C000894
:1005F000000000209C0000209C000020800C0020B7
:10060000FEE770B50D461646002404E0AFF3008007
:10061000287001340135B442F8DB304670BD70B546
:100620001646002405E04D1C0878AFF30080013425
:100630002946B442F7DB304670BD000008B50346DA
:100640000B4A126842B10A4A106803446A46934250
:1006500006D8074A136008BD054A06491160F2E74B
:1006600004F050FA0C2303604FF0FF30F3E700BFB3
:10067000B8000020800C00204FF0FF3070474FF48E
:1006800000534B60002070470120704700207047E6
:1006900008B50349034803F0C3FD034B187008BDB8
:1006A00000010020100000200401002000207047FD
:1006B00070B58AB0002405940694079408940994B0
:1006C00000942B4B1A6B42F080021A631A6B02F0F3
:1006D00080020092009A01941A6B42F001021A63A0
:1006E0001A6B02F001020192019A02941A6B42F015
:1006F00008021A631A6B02F008020292029A03942B
:100700001A6B42F004021A631A6B02F0040203929D
:10071000039A04941A6B42F002021A631B6B03F0F3
:1007200002030493049B134D22464FF400412846D4
:1007300000F078FD012605960F4B0693079405A956
:100740000E4800F09DFC4FF4004305930696079475
:10075000089405A9284600F093FC2246214606206D
:1007600000F024FC062000F055FC0AB070BD00BF6C
:1007700000380240000C024000001110000002404E
:1007800038B5204B5B78312B06D0322B21D0332B60
:1007900025D0342B30D038BD1B4B1C68637C562BC6
:1007A00005D0A37C562B02D0637A562B04D117496F
:1007B000174802F00BF8EEE7552004F0CDF9054696
:1007C0000146204604F0AEF82946114801F0FEFF2C
:1007D000E1E70D4B19680E4801F0F8FFDBE7BFF3C6
:1007E0004F8F0C49CA6802F4E0620B4B1343CB6095
:1007F000BFF34F8F00BFFDE70849054801F0E6FF52
:10080000C9E700BF740B00201C0800202C5A000808
:100810004C5A000800ED00E00400FA055C5A00089C
:10082000F8B504462C4B1B78232B08D02B4B1B7898
:100830000A2B09D001222949294801F0ADFE22687E
:10084000284B9A421DD0F8BD274D254E44222946FB
:10085000304601F0A1FE254F3D60254DE968284650
:1008600003F051FB2946386803F0A2FC284603F048
:10087000FAFA1A4930230B700122304601F08CFE3F
:10088000DDE71C4B1B782B2B05D0012219491A4898
:1008900001F082FED7E702F085F8012805D0012299
:1008A0001449154801F078FECDE70B4C204602F0C4
:1008B0001FF82378232B05D001220E490E4801F0A2
:1008C0006BFEC0E7FFF75CFF30222270012209496E
:1008D000094801F061FEB6E7740B002068050020AE
:1008E00020080020004400406C0500201C08002067
:1008F0003C090020700B0020FC08002008B50268AD
:100900000C4B9A4200D008BD0B4B1A6859680B4B30
:10091000186804F095F840B1074B9A68D968074BFE
:10092000186804F0BDF80028EDD10549054801F02C
:100930004DFFE8E700440140000000201C080020B3
:100940006C5A00084C5A0008FEE7000008B50A4837
:100950000A4B03604FF4E133436000238360C360BC
:1009600003610C2242618361C36101F004FD00B99F
:1009700008BDFFF7E9FF00BF600800200014014038
:1009800008B50A480A4B03604FF41653436000232E
:100990008360C36003610C2242618361C36101F023
:1009A000EAFC00B908BDFFF7CFFF00BF2008002018
:1009B0000010014008B50948094B03604CF24F3361
:1009C00043600023836044F61F62C260036101F04C
:1009D000A9FA00B908BDFFF7B7FF00BFE007002084
:1009E0000044014008B50D480D4B03604FF482737D
:1009F000436000238360C360036143614FF480223E
:100A00008261C3610362436283620A23C36200F0AE
:100A100088FF00B908BDFFF797FF00BFA4080020BA
:100A20000030014008B50A480A4B03604FF4E13337
:100A3000436000238360C36003610C2242618361D1
:100A4000C36101F098FC00B908BDFFF77DFF00BF4E
:100A5000FC0800200044004000B595B03022002181
:100A600008A804F081F800230393049305930693E8
:100A7000079301931F4A116C41F080511164126C6D
:100A800002F080520192019A02931B4B1A6842F4C1
:100A900040421A601B6803F440430293029B012307
:100AA00008934FF48033099302220E924FF480038F
:100AB0000F9304231093642111911292139308A8A9
:100AC00000F0C6FB88B90F2303930223049300238D
:100AD00005934FF4805206920793032103A800F078
:100AE000EFFD20B915B05DF804FBFFF72DFFFFF710
:100AF0002BFF00BF003802400070004008B54420C2
:100B000004F02AF8174B186000F0FEF9FFF7A4FF75
:100B1000FFF7CEFDFFF71AFFFFF732FFFFF74AFF9F
:100B2000FFF760FFFFF77EFFFFF7B2FD01220E49DE
:100B30000E4801F031FD01220D490E4801F02CFD57
:100B40000D4801F0D7F801F09DFE01220B490C4839
:100B500002F01CFF0B4B18700A220B490B4802F0E5
:100B600047FFFEE71C080020680500202008002041
:100B7000700B0020FC080020E0070020D45A000879
:100B8000B0050020A0080020985A00083C09002069
:100B900082B0002100910B4B5A6C42F480425A649F
:100BA0005A6C02F480420092009A01911A6C42F051
:100BB00080521A641B6C03F080530193019B02B0B6
:100BC000704700BF0038024010B588B0002303937F
:100BD00004930593069307930268184B9A4201D039
:100BE00008B010BD0024019403F584335A6C42F41C
:100BF00080525A645A6C02F480520192019A029413
:100C00001A6B42F001021A631B6B03F0010302939B
:100C1000029BF023039302230493032306930523EB
:100C2000079303A9064800F02BFA22462146232009
:100C300000F0BCF9232000F0EDF9D1E700300140CD
:100C40000000024002680E4B9A4200D0704700B587
:100C500083B00021019103F574435A6C42F40032D1
:100C60005A645B6C03F400330193019B0A4619201C
:100C700000F09CF9192000F0CDF903B05DF804FBF9
:100C80000044014010B58CB00023079308930993EA
:100C90000A930B930368494A934207D0484A934208
:100CA00031D0484A93425BD00CB010BD002401946F
:100CB000454B5A6C42F010025A645A6C02F0100212
:100CC0000192019A02941A6B42F002021A631B6BA2
:100CD00003F002030293029BC023079302230893AD
:100CE0000123099303230A9307230B9307A937488A
:100CF00000F0C6F922462146252000F057F92520AC
:100D000000F088F9D0E7002403942F4B1A6C42F4CA
:100D100000321A641A6C02F400320392039A0494AB
:100D20001A6B42F001021A631B6B03F00103049378
:100D3000049B0C23079302230893012309930323A5
:100D40000A9307230B9307A9214800F099F922463B
:100D50002146262000F02AF9262000F05BF9A3E7BF
:100D600000240594184B5A6C42F020025A645A6CC5
:100D700002F020020592059A06941A6B42F00402D2
:100D80001A631B6B03F004030693069BC0230793AF
:100D9000022308930123099303230A9308230B9347
:100DA00007A90C4800F06CF922462146472000F0C4
:100DB000FDF8472000F02EF976E700BF0010014053
:100DC000004400400014014000380240000402408A
:100DD00000000240000802407047FEE7FEE7FEE721
:100DE000FEE770477047704708B500F0A7F808BDE8
:100DF00008B5012000F01EFA08BD000008B5024841
:100E000000F088FF08BD00BFE007002008B50248D9
:100E100000F0E4FE08BD00BFA408002008B50248A9
:100E200001F03CFC08BD00BF2008002008B50248C6
:100E300001F034FC08BD00BFFC08002008B50248E2
:100E400001F02CFC08BD00BF6008002008B503F0CD
:100E500003FB08BD08B503F0ABFB08BD08B503F004
:100E6000B1FB08BD08B503F0F3FB08BD08B503F0FE
:100E700047FC08BD0F49D1F8883043F47003C1F82E
:100E800088300D4B1A6842F001021A600020986009
:100E90001A6822F0847222F480321A60074A5A607B
:100EA0001A6822F480221A60D8604FF000638B60C9
:100EB000704700BF00ED00E0003802401030002411
:100EC00010B504460E4B18784FF47A73B3FBF0F369
:100ED0000C4A1068B0FBF3F000F0A8F868B90F2CCA
:100EE00001D901200AE0002221464FF0FF3000F036
:100EF0005DF8034B5C60002000E0012010BD00BFE6
:100F00002C0000202800002008B50B4B1A6842F482
:100F100000721A601A6842F480621A601A6842F419
:100F200080721A60032000F02FF80020FFF7C8FF3E
:100F3000FFF72EFE002008BD003C0240034A116866
:100F4000034B1B780B441360704700BF6C0B0020F1
:100F50002C000020014B1868704700BF6C0B00206C
:100F600038B50446FFF7F6FF0546B4F1FF3F02D05F
:100F7000044B1B781C44FFF7EDFF401BA042FAD343
:100F800038BD00BF2C000020074AD36823F4E0637B
:100F90001B041B0C000200F4E060184340F0BF602B
:100FA00040F40030D060704700ED00E030B4174BE3
:100FB000DB68C3F30223C3F10704042C28BF042415
:100FC0001D1D062D18D9033B4FF0FF3505FA04F41B
:100FD00021EA0401994005FA03F322EA03031943C5
:100FE00000280BDB0901C9B200F1604000F5614047
:100FF00080F8001330BC70470023E5E700F00F00D5
:101000000901C9B2024B1954F4E700BF00ED00E03A
:1010100014ED00E000F01F02400901239340024A52
:1010200042F82030704700BF00E100E00138B0F125
:10103000807F0AD2064B5860064AF02182F82310BE
:101040000020986007221A6070470120704700BF97
:1010500010E000E000ED00E090F83530DBB2022B4C
:1010600003D08023436501207047052380F8353085
:101070000268136823F0010313600020704700002A
:1010800000230F2B00F2C580F0B482B039E00422B7
:1010900000E00022B2403A4302345E4E46F824207B
:1010A0005D4A1468EA4302EA04064F6817F4803F79
:1010B00001D045EA0406584C2660646802EA04063A
:1010C0004F6817F4003F01D045EA0406524C6660B1
:1010D000A46802EA04064F6817F4801F01D045EAAD
:1010E00004064D4CA660E46822404E6816F4001FCA
:1010F00001D045EA0402484CE26001330F2B00F2B4
:10110000858001229A400C6804EA0205AA42F4D1C3
:101110004C68022C01D0122C10D1DE08083650F891
:1011200026C003F00704A7000F24BC402CEA040CDF
:101130000C69BC4044EA0C0440F8264004685F0097
:101140000326BE40F64306EA040C4C6804F0030490
:10115000BC4044EA0C0404604C6804F1FF3CBCF160
:10116000010F03D9112C01D0122C10D1846806EA8A
:10117000040CCC68BC4044EA0C048460446824EA53
:1011800002024C68C4F300149C4014434460C268DB
:1011900016408A68BA403243C2604A6812F0805FE3
:1011A000ABD0002201921D4A546C44F48044546434
:1011B000526C02F480420192019A9C08A61C154AC6
:1011C00052F8267003F0030296000F22B24027EA7D
:1011D0000207134A90423FF45CAF02F580629042EE
:1011E0000ED002F5806290420CD002F580629042EF
:1011F0000AD002F5806290423FF449AF072249E7E6
:10120000012247E7022245E7032243E702B0F0BC90
:101210007047704700380140003C014000380240F0
:101220000000024012B90904816170478161704772
:101230007047000008B5054B5B69034200D108BD4B
:10124000024B5861FFF7F4FFF9E700BF003C014093
:10125000002800F0BB8170B582B00446036813F02B
:10126000010F3BD0A74B9B6803F00C03042B2CD041
:10127000A44B9B6803F00C03082B21D06368B3F5E3
:10128000803F4FD0B3F5A02F52D09E4B1A6822F466
:1012900080321A601A6822F480221A606368002B78
:1012A00050D0FFF757FE0546964B1B6813F4003FDE
:1012B00014D1FFF74FFE401B6428F5D903208AE1C3
:1012C000904B5B6813F4800FD8D08E4B1B6813F4DF
:1012D000003F03D06368002B00F07A81236813F08D
:1012E000020F55D0874B9B6813F00C0F3ED0854BF7
:1012F0009B6803F00C03082B33D0E368002B68D005
:10130000814B01221A60FFF725FE05467D4B1B68C5
:1013100013F0020F54D1FFF71DFE401B0228F5D930
:10132000032058E1774A136843F480331360B5E72C
:10133000744B1A6842F480221A601A6842F48032B0
:101340001A60ABE7FFF706FE05466E4B1B6813F409
:10135000003FC3D0FFF7FEFD401B6428F5D90320F2
:1013600039E1684B5B6813F4800FC6D1654B1B688D
:1013700013F0020F04D0E368012B01D001202AE111
:10138000604A136823F0F803216943EAC10313603C
:10139000236813F0080F40D0636963B35B4B0122ED
:1013A0001A60FFF7D7FD0546564B5B6F13F0020F2F
:1013B00033D1FFF7CFFD401B0228F5D903200AE106
:1013C000504A136823F0F803216943EAC10313600C
:1013D000DEE74D4B00221A60FFF7BCFD0546494B86
:1013E0001B6813F0020FD3D0FFF7B4FD401B022897
:1013F000F5D90320EFE0454B00221A60FFF7AAFD64
:101400000546404B5B6F13F0020F06D0FFF7A2FDBD
:10141000401B0228F5D90320DDE0236813F0040FF8
:1014200079D0384B1B6C13F0805F33D100230193CC
:10143000344B1A6C42F080521A641B6C03F08053D8
:101440000193019B0125324B1B6813F4807F23D04D
:10145000A368012B34D0052B38D02A4B1A6F22F009
:1014600001021A671A6F22F004021A67A368002BA0
:1014700036D0FFF76FFD0646224B1B6F13F0020FAD
:1014800048D1FFF767FD801B41F288339842F3D9BA
:101490000320A0E00025D6E71D4A136843F48073BB
:1014A0001360FFF757FD0646194B1B6813F4807F46
:1014B000CED1FFF74FFD801B0228F5D903208AE02B
:1014C000104A136F43F001031367CFE70D4B1A6FF8
:1014D00042F004021A671A6F42F001021A67C5E768
:1014E000FFF738FD0646074B1B6F13F0020F11D0B4
:1014F000FFF730FD801B41F288339842F3D9032077
:1015000069E000BF0038024000004742800E4742B9
:1015100000700040E5B9A369002B5BD0304A9268A7
:1015200002F00C02082A58D0022B17D02D4B0022B3
:101530001A60FFF70FFD0446294B1B6813F0007F6C
:1015400042D0FFF707FD001B0228F5D9032042E037
:10155000234A136C23F080531364DCE7214B0022F1
:101560001A60FFF7F7FC05461D4B1B6813F0007F60
:1015700006D0FFF7EFFC401B0228F5D903202AE034
:10158000E369226A1343626A43EA8213A26A520839
:10159000013A43EA0243E26A43EA0263104A5360B3
:1015A000104B01221A60FFF7D5FC04460C4B1B6858
:1015B00013F0007F06D1FFF7CDFC001B0228F5D900
:1015C000032008E0002006E0002004E0012070472E
:1015D000012000E0002002B070BD0120FBE700BF49
:1015E0000038024060004742324B9B6803F00C0316
:1015F000042B5CD0082B01D02F4870472DE9F04B0D
:101600002C4B5A6802F03F025B6813F4800F2BD01A
:10161000284B5B68C3F388131E4600275C01002536
:10162000E41A65EB0705A90141EA9461A001001BDA
:1016300061EB0501CB0043EA5073C400A01943EBF2
:1016400007014B0243EAD0534402204619460023C7
:10165000FEF7C6FD174B5B68C3F3014301335B0024
:10166000B0FBF3F0BDE8F08B124B5B68C3F388135B
:101670001E4600275C010025E41A65EB0705A90159
:1016800041EA9461A001001B61EB0501CB0043EA34
:101690005073C400A01943EB07018B0243EA905337
:1016A0008402204619460023FEF79AFDD2E703483C
:1016B000704700BF003802400024F40000127A0096
:1016C000002800F09D8070B504464F4B1B6803F066
:1016D0000F038B4209D2CBB24B4A1370136803F04D
:1016E0000F038B4201D0012070BD236813F0020F5D
:1016F00017D013F0040F04D0444A936843F4E05326
:101700009360236813F0080F04D0404A936843F4B1
:10171000604393603D4A936823F0F003A06803435D
:1017200093600D46236813F0010F32D06368012BDC
:1017300021D09A1E012A25D9344A126812F0020FCC
:1017400060D032498A6822F0030213438B60FFF7AE
:1017500001FC06462D4B9B6803F00C036268B3EB5B
:10176000820F16D0FFF7F6FB801B41F288339842B8
:10177000F0D90320B8E7254A126812F4003FE0D1FF
:101780000120B1E7214A126812F0007FD9D101206F
:10179000AAE71D4B1B6803F00F03AB4209D9EAB25D
:1017A000194B1A701B6803F00F03AB4201D00120E4
:1017B0009AE7236813F0040F06D0144A936823F4C1
:1017C000E053E1680B439360236813F0080F07D0E0
:1017D0000E4A936823F46043216943EAC10393608E
:1017E000FFF702FF094B9B68C3F30313084AD35C5E
:1017F000D840084B18600020FFF762FB002073E719
:101800000120704701206FE7003C02400038024091
:101810007459000828000020014B1868704700BF69
:101820002800002008B5FFF7F7FF044B9B68C3F3BF
:101830008223034AD35CD84008BD00BF0038024071
:101840008459000808B5FFF7E7FF044B9B68C3F312
:101850004233034AD35CD84008BD00BF0038024081
:1018600084590008F8B505460F4616461C463BE06D
:101870002CB1FFF76FFB069BC01AA04234D32A6835
:10188000536823F0E00353606B68B3F5827F0BD09D
:10189000AB6AB3F5005F14D0012385F85130002303
:1018A00085F85030032027E0AB68B3F5004F02D035
:1018B000B3F5806FECD12A68136823F040031360FE
:1018C000E6E72A68136823F400531B041B0C13601B
:1018D0002A68136843F400531360DDE70123B34221
:1018E00009D0B4F1FF3FC3D12B689B6837EA0303EB
:1018F000F4D00023F3E70020F8BD10B582B0044611
:1019000000920B4600228021FFF7ACFF034610B97E
:10191000184602B010BD636D43F0200363650323D6
:10192000F6E700283BD010B504460023836290F808
:101930005130002B2ED0022384F8513022681368D6
:1019400023F0400313606368A2681343E268134303
:101950002269134362691343A26902F400721343BC
:10196000E2691343226A1343A16A22680B4313609E
:10197000638B03F00403616A22680B43536022689F
:10198000D36923F40063D36100206065012384F8E8
:10199000513010BD80F85030FFF716F9CBE7012029
:1019A00070472DE9F04385B099460C9D90F8503072
:1019B000012B00F0108104460F461646012380F8E3
:1019C0005030FFF7C7FA804694F85130DBB26268B6
:1019D000012B15D0B2F5827F0AD00223012284F8B0
:1019E0005120002284F85020184605B0BDE8F0834D
:1019F000A268002A40F0E780042B01D00223EDE723
:101A0000002F00F0E280002E00F0E180B9F1000F1D
:101A100000F0DF8094F85130DBB2012B2BD0002393
:101A20006365A663A4F83E90A4F83C902763A4F8ED
:101A30003690A4F834902364636423681A6812F023
:101A4000400F03D11A6842F040021A60E368B3F510
:101A5000006F14D063681BB1E38E9BB2012B07D1DA
:101A6000236817F8012B1A73E38E013B9BB2E386C0
:101A70004FF0010961E0052384F85130CFE7636836
:101A80001BB1E38E9BB2012B07D1236837F8022BE1
:101A9000DA60E38E013B9BB2E3864FF0010913E06D
:101AA000E38F9BB26BB123689A6812F0010F08D0E4
:101AB000DB6826F8023BE38F013B9BB2E3874FF0E4
:101AC0000109B5F1FF3F1CD1E38E9BB21BB9E38F37
:101AD0009BB2002B55D0B9F1000FE1D0E38E9BB241
:101AE000002BDDD023689A6812F0020FD8D037F8A7
:101AF000022BDA60E38E013B9BB2E3864FF00009D4
:101B0000CEE7FFF727FAA0EB0800A842DCD30323B7
:101B100064E7E38F9BB26BB123689A6812F0010F00
:101B200008D0DB683370E38F013B9BB2E38701365B
:101B30004FF00109B5F1FF3F1BD1E38E9BB213B902
:101B4000E38F9BB2EBB1B9F1000FE2D0E38E9BB211
:101B5000002BDED023689A6812F0020FD9D03A78B1
:101B60001A73E38E013B9BB2E38601374FF0000905
:101B7000CFE7FFF7EFF9A0EB0800A842DDD303237E
:101B80002CE7CDF800802B46012202212046FFF7EA
:101B900069FE08B1032321E7424629462046FFF7A4
:101BA000ACFE034618B120236365012316E7A26843
:101BB000002A7FF413AF03922268D16803919268E0
:101BC0000392039A0AE7022308E7012306E70123A9
:101BD00004E7012302E7022306E7704710B584B04B
:101BE000044602685068936803F0410101290AD055
:101BF00013F0020F0ED010F0800F0BD0636C204654
:101C0000984704B010BD10F0400FF1D0236C20466F
:101C10009847F6E713F4B07FF3D010F0200FF0D020
:101C200013F0400F0FD094F85110C9B203294AD0D5
:101C3000616D41F00401616500210091D16800915E
:101C400091680091009913F0200F0CD0616D41F064
:101C5000010161650021029191680291116821F0F2
:101C600040011160029A13F4807F09D0636D43F044
:101C7000080363650023039323689B680393039B16
:101C8000636D002BBDD02268536823F0E0035360DE
:101C9000012384F8513010F0030F1CD022685368E0
:101CA00023F003035360E36C23B10D4A1A65E06C23
:101CB000FFF7D2F9A36C002BA3D0094A1A65A06CD8
:101CC000FFF7CAF99DE700230193D3680193936856
:101CD0000193019B95E72046FFF77FFF91E700BF47
:101CE000E51C000808B5806B0023C387C386FFF797
:101CF00074FF08BD0268D36843F00103D360026833
:101D0000136843F001031360002070477047704769
:101D10007047704710B5044603681A6912F0020F45
:101D200011D0DA6812F0020F0DD06FF002021A61C2
:101D30000123037603689B6913F0030F70D0FFF74C
:101D4000E6FF0023237623681A6912F0040F12D0ED
:101D5000DA6812F0040F0ED06FF004021A61022349
:101D6000237623689B6913F4407F5FD02046FFF7FA
:101D7000CEFF0023237623681A6912F0080F12D0D1
:101D8000DA6812F0080F0ED06FF008021A6104230F
:101D900023762368DB6913F0030F4ED02046FFF74C
:101DA000B6FF0023237623681A6912F0100F12D0B1
:101DB000DA6812F0100F0ED06FF010021A610823CB
:101DC00023762368DB6913F4407F3DD02046FFF77C
:101DD0009EFF0023237623681A6912F0010F03D0B7
:101DE000DA6812F0010F36D123681A6912F0800FF9
:101DF00003D0DA6812F0800F34D123681A6912F028
:101E0000400F03D0DA6812F0400F32D123681A690C
:101E100012F0200F03D0DA6812F0200F30D110BD7D
:101E2000FFF774FF2046FFF773FF8AE72046FFF7AE
:101E30006DFF2046FFF76CFF9BE72046FFF766FF2C
:101E40002046FFF765FFACE72046FFF75FFF20461F
:101E5000FFF75EFFBDE76FF001021A612046FEF753
:101E60004DFDC1E76FF080021A61204600F074F862
:101E7000C3E76FF040021A612046FFF74AFFC5E74B
:101E80006FF020021A61204600F065F8C7E70000F5
:101E90000368234A90420ED0B0F1804F0BD0A2F5D8
:101EA0007C42904207D002F58062904203D002F556
:101EB0008062904203D123F070034A681343184AAA
:101EC00090421AD0B0F1804F17D0A2F57C429042D8
:101ED00013D002F5806290420FD002F580629042EA
:101EE0000BD002F59A32904207D002F58062904200
:101EF00003D002F58062904203D123F44073CA6894
:101F0000134303608B68C3620B688362044B98427F
:101F100002D00123436170470B690363F9E700BFF7
:101F200000000140A8B110B5044690F839305BB10B
:101F3000022384F83930211D2068FFF7A9FF01230F
:101F400084F83930002010BD80F83830FEF77AFE72
:101F5000EEE701207047704770470268D36823F4AA
:101F60009073D3600268536923F001035361202307
:101F700080F83A30704790F83930DBB2212B2AD103
:101F80008368B3F5805F16D0036A5A1C02621A7820
:101F900003685A60C38C013B9BB2C384EBB90268EF
:101FA000D36823F08003D3600268D36843F0400312
:101FB000D36000207047036A1B880268C3F30803DC
:101FC000536003691BB9036A02330362E2E7036AE1
:101FD00001330362DEE702207047002070470000F3
:101FE0002DE9F843044601680A6922F44052C368A7
:101FF00013430B610168CA6822F4164222F00C02F6
:1020000083680069034360690343E0690343134342
:10201000CB6021684A6922F44072A36913434B6183
:10202000E369B3F5004F60D02368B84A934200F0EB
:10203000148102F58062934200F00F81FFF7F2FBFA
:1020400000EB800000EB80006568AD00B0FBF5F5AB
:10205000AF4FA7FB05356D092E01FFF7E3FB00EB42
:10206000800000EB80006568AD00B0FBF5F9FFF77C
:10207000D9FB00EB800000EB80006568AD00B0FB91
:10208000F5F5A7FB05356D094FF0640808FB1595BC
:102090002D013235A7FB05356D0905F0F0053544F6
:1020A000FFF7C0FB00EB800000EB80006668B60025
:1020B000B0FBF6F6FFF7B6FB00EB800000EB80000C
:1020C00063689B00B0FBF3F0A7FB0030400908FBFE
:1020D00010684FEA081808F13208A7FB0837C7F361
:1020E000431723682F449F600DE12368874A93427A
:1020F0005BD002F58062934257D0FFF793FB00EB71
:10210000800000EB800065686D00B0FBF5F5804F46
:10211000A7FB05356D092E01FFF784FB00EB80005E
:1021200000EB800065686D00B0FBF5F9FFF77AFB06
:1021300000EB800000EB800065686D00B0FBF5F5FA
:10214000A7FB05356D094FF0640808FB1595ED00F8
:102150003235A7FB05356D096D0005F4F87535447A
:10216000FFF760FB00EB800000EB80006668760004
:10217000B0FBF6F6FFF756FB00EB800000EB8000AB
:1021800063685B00B0FBF3F3A7FB03235B0908FB69
:1021900013684FEAC80808F13208A7FB0837C7F3ED
:1021A000421723682F449F60ADE0FFF74BFB00EB25
:1021B000800000EB800065686D00B0FBF5F5544FC2
:1021C000A7FB05356D092E01FFF73CFB00EB8000F6
:1021D00000EB800065686D00B0FBF5F9FFF732FB9E
:1021E00000EB800000EB800065686D00B0FBF5F54A
:1021F000A7FB05356D094FF0640808FB1595ED0048
:102200003235A7FB05356D096D0005F4F8753544C9
:10221000FFF718FB00EB800000EB8000666876009B
:10222000B0FBF6F6FFF70EFB00EB800000EB800042
:1022300063685B00B0FBF3F3A7FB03235B0908FBB8
:1022400013684FEAC80808F13208A7FB0837C7F33C
:10225000421723682F449F6055E0FFF7F3FA00EB25
:10226000800000EB80006568AD00B0FBF5F5284FFD
:10227000A7FB05356D092E01FFF7E4FA00EB80009E
:1022800000EB80006568AD00B0FBF5F9FFF7DAFA06
:1022900000EB800000EB80006568AD00B0FBF5F559
:1022A000A7FB05356D094FF0640808FB15952D0156
:1022B0003235A7FB05356D0905F0F0053544FFF70C
:1022C000C1FA00EB800000EB80006668B600B0FB4E
:1022D000F6F6FFF7B7FA00EB800000EB80006368CA
:1022E0009B00B0FBF3F0A7FB0030400908FB10682F
:1022F0004FEA081808F13208A7FB0837C7F343175D
:1023000023682F449F60BDE8F88300BF00100140A0
:102310001F85EB512DE9F04105460F4616469846BC
:10232000069C2B681B6837EA03030CBF01230023BC
:10233000B3421DD1B4F1FF3FF3D02CB1FEF70AFE3A
:10234000A0EB0800A042ECD92A68D36823F4D0732C
:10235000D3602A68536923F001035361202385F871
:10236000393085F83A30002385F83830032000E012
:102370000020BDE8F08158B310B5044690F839301C
:102380000BB3242384F839302268D36823F4005334
:10239000D3602046FFF724FE2268136923F490439C
:1023A00013612268536923F02A0353612268D368BA
:1023B00043F40053D3600020E063202384F83930D5
:1023C00084F83A3010BD80F83830FEF75BFCD8E76F
:1023D000012070472DE9F04182B01E4690F8393057
:1023E000DBB2202B55D104460D469046002955D02E
:1023F000002A55D090F83830012B53D0012380F8B3
:1024000038300023C363212380F83930FEF7A2FD62
:102410000746A4F82480A4F8268010E000963B46E6
:10242000002280212046FFF775FF00283CD12B8831
:102430002268C3F3080353602369C3B90235E38CF0
:102440009BB2B3B1E38C013B9BB2E384A368B3F5C9
:10245000805FE3D000963B46002280212046FFF7B4
:1024600059FF18BB2A7823685A600135E7E7013520
:10247000E5E700963B46002240212046FFF74AFF51
:102480000346A8B9202284F83920002284F8382095
:1024900000E00223184602B0BDE8F0810123F9E70D
:1024A0000123F7E70223F5E70323F3E70323F1E72B
:1024B0000323EFE72DE9F04182B01E4690F83A3051
:1024C000DBB2202B5AD104460D469046002959D044
:1024D000002A59D090F83830012B57D0012380F8CA
:1024E00038300023C363222380F83A30FEF732FDF0
:1024F0000746A4F82C80A4F82E801DE000963B46E9
:10250000002220212046FFF705FF002840D1236943
:1025100033B923685B68C3F3080325F8023B0BE07B
:1025200023685B68DBB225F8013B05E023685B6844
:1025300003F07F032B700135E38D9BB2BBB1E38DBC
:10254000013B9BB2E385A368B3F5805FD6D00096CC
:102550003B46002220212046FFF7DCFED0B923694C
:10256000002BE3D123685B682B700135E4E720235F
:1025700084F83A30002084F8380000E0022002B0ED
:10258000BDE8F0810120FAE70120F8E70220F6E734
:102590000320F4E70320F2E790F83A30DBB2202B77
:1025A0001BD1E1B1EAB190F83830012B1BD0816228
:1025B0008285C2850023C363222280F83A2080F8F6
:1025C000383001684A6942F001024A610168CA680C
:1025D00042F49072CA60184670470220704701208A
:1025E00070470120704702207047704708B50168A6
:1025F000CB6823F04003CB60202380F83930FFF70D
:10260000F4FF002008BD08B590F83A30DBB2222B69
:1026100040D18368B3F5805F0ED0036903BB0368C4
:102620005A68836A591C81621A70C38D013B9BB240
:10263000C385F3B100202EE0826A036943B90368C1
:102640005B68C3F308031380836A02338362ECE799
:1026500003685B68DBB21380836A01338362E4E75B
:1026600003685B68826A511C816203F07F03137008
:10267000DBE70268D36823F49073D3600268536980
:1026800023F001035361202380F83A30FEF7C8F8A5
:10269000002000E0022008BD7047000010B504468D
:1026A00002681368D168526913F00F0005D113F066
:1026B000200F02D011F0200F53D1002867D012F064
:1026C000010202D111F4907F61D013F0010F06D006
:1026D00011F4807F03D0E06B40F00100E06313F061
:1026E000040F04D01AB1E06B40F00200E06313F075
:1026F000020F04D01AB1E06B40F00400E06313F065
:10270000080F04D01AB1E26B42F00802E263E26BF8
:10271000002A48D013F0200F02D011F0200F24D14E
:1027200023685B6903F04003E26B12F0080F00D1ED
:102730003BB32046FFF711FC23685A6912F0400FA3
:102740001BD05A6922F040025A61636B8BB11A4A5E
:102750001A65606BFEF780FC28B3606B036D9847C9
:1027600021E02046FFF74FFF1DE02046FFF74BFF1B
:10277000D6E72046FFF790FF15E02046FFF78CFFD5
:1027800011E02046FFF788FF0023E3630BE013F01E
:10279000800F02D011F0800F06D113F0400F02D04D
:1027A00011F0400F04D110BD2046FFF7E4FBFAE71B
:1027B0002046FFF71BFFF6E7BD27000808B5806B32
:1027C0000023C385C384FFF767FF08BDF8B505463E
:1027D0000F46264C0A23032225492046FFF7FAFD1F
:1027E0004FF4FA60FEF7BCFB0A231A462149204643
:1027F000FFF7F0FD4FF47A70FEF7B2FB0A230822D0
:102800001D492046FFF7E6FD4FF4FA70FEF7A8FBDE
:102810001A4E3946304602F057FA0A2382B2394638
:102820002046FFF7D7FD4FF47A70FEF799FB294653
:10283000304602F049FA0A2382B229462046FFF7C1
:10284000C9FD0F4D1A232B700A2301222946204669
:10285000FFF7C0FD0D232B700A23012229462046D5
:10286000FFF7B8FD0A232B70F8BD00BFFC0800205D
:10287000A45A0008A85A0008B45A0008C05A000810
:10288000710B002010B5154C0A2303221449204671
:10289000FFF7A0FD4FF4FA60FEF762FB0A231A4629
:1028A00010492046FFF796FD4FF47A70FEF758FB6B
:1028B0000A2310220C492046FFF78CFD4FF47A7052
:1028C000FEF74EFB0A23152208492046FFF782FD3A
:1028D0004FF47A70FEF744FB10BD00BFFC080020E7
:1028E000A45A0008A85A0008C45A0008D85A000878
:1028F00070B5064600240F4D0A23012229460E48D2
:10290000FFF7D8FD2A780D4B1A70325501341B7829
:10291000782B01D0582BEED1E3B203E000223255E0
:102920000133DBB2FD2BF9D9012202490248FFF73E
:1029300033FE70BD700B0020FC080020710B0020DE
:1029400000B585B000230393C3788DF80430037974
:102950008DF8053043798DF8063083798DF807308E
:10296000C3798DF80830037A8DF80930437A8DF8F1
:102970000A30837A8DF80B30C37A8DF80C30037BE4
:102980008DF80D30437B8DF80E3001A90448FDF71A
:10299000A7FD18B9002005B05DF804FB0120FAE797
:1029A0004C5A000810B590B0224C0A23012221464F
:1029B0002148FFF77FFD2378432B07D001221D49D3
:1029C0001D48FFF7E9FD002010B010BD0A230122C9
:1029D00021461948FFF76EFD23784D2B06D00122C2
:1029E00014491548FFF7D8FD0020EDE70A2301221E
:1029F00021461148FFF75EFD2378542B06D00122B3
:102A00000C490D48FFF7C8FD0020DDE70A233B22F3
:102A100001A90948FFF74EFD01A8FFF791FF012822
:102A200005D006490648FFF7D1FE0020CCE701207B
:102A3000CAE700BF700B0020FC080020F05A000815
:102A40004C5A000808B5044B03EB800252685268E8
:102A50000344187A904708BDE800002008B5084BE9
:102A60001B5C53B9064B01221A5403EB80025268D7
:102A700012681844007A904708BD0020FCE700BFA8
:102A8000E800002038B5044C04EB80056D68AD68A3
:102A90000444207AA84738BDE800002038B5044C2B
:102AA00004EB80056D68ED680444207AA84738BDC2
:102AB000E800002010B5044B03EB8004646824692F
:102AC0000344187AA04710BDE8000020427800783F
:102AD00040EA02207047C278837843EA02224378B2
:102AE00043EA0223007840EA032070470170090A94
:102AF000417070470170C1F307234370C1F307436E
:102B00008370090EC170704713462AB10A780270AB
:102B100001300131013BF9D1704701700130013AB8
:102B2000FBD1704730B4451C037808781B1A013A72
:102B300004D04C1C28462146002BF4D0184630BC4B
:102B4000704700E0013003780BB18B42FAD1184690
:102B50007047000030B400252B4601E00125013309
:102B6000012B15D81A01174CA258002AF6D0046878
:102B7000A242F4D1134A02EB0312546882689442D1
:102B8000EDD1104A02EB0312946842699442E6D1F7
:102B9000022B0AD0A1B90B4A02EB03139B89B3F5B0
:102BA000807F07D0002030BC70472DB9022905D1A5
:102BB0000020F8E71020F6E70020F4E71220F2E703
:102BC0001020F0E7C0000020002000E001300128C4
:102BD00004D80301034AD358002BF7D1023818BF99
:102BE00001207047C000002070B4002300E00133D2
:102BF000012B13D81A01244CA45802689442F6D130
:102C0000214A02EB0312546882689442EFD11E4AB3
:102C100002EB0312946842699442E8D1022B29D056
:102C200021B1194A02EB0312928952BB21BB164A09
:102C300002EB03129189013189B2134A02EB0312AC
:102C40009181581C70BC70470133012B04D81A01C4
:102C50000D4CA258002AF7D1022B10D006680A4D5D
:102C60001C012A192E51846854604069906000202C
:102C70009081D5E70023E8E74FF48071DDE700207D
:102C8000E0E70020DEE700BFC0000020002303E0F3
:102C90005DF8044B70470133012B11D81A01094923
:102CA0008A588242F7D110B41A0100248C500133A3
:102CB000012BEDD81A0103498A588242F7D1F3E774
:102CC000704700BFC000002002394369023B8B42BD
:102CD00004D94389806A01FB0300704700207047D4
:102CE0000268C36A0433490A5289B1FBF2F11868D9
:102CF00030B1814202D3091A0833F8E75868084412
:102D0000704770B506460D4601F11A00FFF7DEFE6A
:102D10003378032B00D070BD044605F11400FFF793
:102D2000D5FE44EA0040F6E770B506460C46154667
:102D300091B204F11A00FFF7D9FE3378032B00D0CB
:102D400070BD290C04F11400FFF7D0FEF8E7000075
:102D50002DE9F84F82468B460F6800F124090B22BB
:102D600020214846FFF7D9FE002633464FF00808D9
:102D70002CE001357B5D2F2BFBD05C2BF9D03D4443
:102D8000CBF80050002E43D09AF82430E52B35D0F4
:102D9000202C37D804238AF82F30002028E008267A
:102DA0004FF00B0811E014F0800F23D12146194891
:102DB000FFF7C7FE50BBA4F16103DBB2192B01D8AA
:102DC000203CE4B209F8064001362B465D1CFC5C51
:102DD000202CD4D92F2CCDD05C2CCBD02E2C01D0B4
:102DE000B045E0D8B8F10B0F0ED02E2CD7D006206E
:102DF000BDE8F88F803C084B1C5DD7E705238AF8B7
:102E00002430C5E70023C6E70620F1E70620EFE7F8
:102E10000620EDE70C5B00088C590008016809B139
:102E20000A4603E04FF0FF3308E001321378202B0D
:102E300001D93A2BF9D13A2B02D00023184670471A
:102E400010B44C1C0B78303B092B08D8A24209D196
:102E50005BB90132026018465DF8044B70474FF0D1
:102E6000FF33F8E74FF0FF33F5E74FF0FF33F2E7BA
:102E70000160002343608360704738B50D4640B160
:102E8000044603682BB11A781AB1D9888288914216
:102E900003D000232B60092038BD5878FFF7D2FDFE
:102EA00010F0010FF5D123682B600020F4E7F8B58E
:102EB000C3780BB90020F8BD0446C56A00F130079D
:102EC00001232A4639464078FFF7E8FDA8B90023D8
:102ED000E370236AEB1AA269934210D2A678012EFE
:102EE00009D9A3691D4401232A4639466078FFF7B2
:102EF000D5FD013EF3E70020DDE70120DBE7002000
:102F0000D9E770B5C36A8B4212D004460D46FFF76D
:102F1000CEFF064668B901232A4604F130016078E5
:102F2000FFF7B0FD10B101264FF0FF35E56200E07C
:102F30000026304670BD000010B504460023C37063
:102F40004FF0FF33C362FFF7DCFF18BB04F22E2003
:102F5000FFF7BCFD4AF6552398421DD194F8303056
:102F6000E92B05D0236B03F0FF130F4A934215D1D1
:102F700004F16600FFF7AFFD20F07F400B4B984255
:102F80000ED004F18200FFF7A6FD094B984209D14B
:102F9000002002E0042000E0032010BD0220FCE736
:102FA0000020FAE70220F8E7EB00900046415400C9
:102FB000464154332DE9F04784B00F4616460023AE
:102FC0000B60FFF72BFF051EC0F24581B74B03EBEB
:102FD00085031C6A002C00F042813C6006F0FE066E
:102FE000237873B16078FFF72DFD10F0010F08D141
:102FF000002E00F0368110F0040F40F034810020E4
:103000002AE100232370E8B26070FFF727FD10F07B
:10301000010F40F02A811EB110F0040F40F027810B
:1030200000212046FFF788FF022800F0B680002626
:10303000042800F01E81012800F21D8104F13B00EC
:10304000FFF744FDB0F5007F40F0178104F1460022
:10305000FFF73CFD074620B904F15400FFF73BFDA4
:103060000746A76194F84020A270531EDBB2012BE3
:1030700000F2058107FB02F594F83D80A4F80A8070
:10308000B8F1000F00F0FD8008F1FF3318EA030FDC
:1030900040F0F98004F14100FFF718FD82462081DD
:1030A00010F00F0F40F0F18004F14300FFF70EFD28
:1030B000814620B904F15000FFF70DFD814604F16F
:1030C0003E00FFF703FD0146002800F0E0804219B2
:1030D00002EB1A129145C0F0DC80A9EB0203B3FBAE
:1030E000F8F3002B00F0D7804FF6F57083426CD9CF
:1030F0004FF0030940F6F570834201D84FF0010903
:1031000003F10208C4F81480E6618B19236232448B
:10311000A262B9F1030F5BD0BAF1000F00F0C180D9
:103120002B446362B9F1020F63D008EB480208F048
:10313000010303EB520303F2FF13B7EB532FC0F06D
:10314000B2804FF0FF332361E36080232371B9F134
:10315000030F51D084F80090544A938C01339BB2F2
:103160009384E3802046FFF791FD002074E0002067
:1031700004AB03EB850343F8100C0135032D0ED887
:1031800004F130002B0103F5DF7318440379002BA1
:10319000EDD00830FFF79FFCEAE70025EEE70025B9
:1031A0000AE031462046FFF7C7FE01287FF640AF10
:1031B0000135032D3FF63CAF04AB03EB850353F819
:1031C000106C002EEDD10320F2E74FF0020991E7D9
:1031D00004F15A00FFF77AFC00285ED1BAF1000F23
:1031E0005DD104F15C00FFF776FC60624FEA880372
:1031F000A1E74FEA48039EE704F16000FFF766FC91
:103200000128A7D1711C2046FFF77BFE0028A1D121
:103210000023237104F22E20FFF758FC4AF65523B1
:10322000984297D104F13000FFF755FC204B9842AB
:1032300090D104F50570FFF74EFC1E4B984289D1E2
:1032400004F50670FFF747FC206104F50770FFF7EF
:1032500042FCE0607EE70B2004B0BDE8F0870C2064
:10326000FAE70020F8E70A20F6E70320F4E70A204F
:10327000F2E70120F0E70D20EEE70D20ECE70D204E
:10328000EAE70D20E8E70D20E6E70D20E4E70D2052
:10329000E2E70D20E0E70D20DEE70D20DCE70D2062
:1032A000DAE70D20D8E70D20D6E700BFC0000020E8
:1032B00052526141727241612DE9F04701297AD978
:1032C00043698B4279D917460C4606460378022B90
:1032D00043D0032B54D0012B01D002256EE001EB2B
:1032E0005108016A01EB5821FFF70BFE0546002843
:1032F00064D106F1300A08F10109C8F3080814F096
:1033000001041FD01AF9083003F00F033A0102F448
:103310007F621343DBB20AF808300123F370316A8D
:1033200001EB59213046FFF7ECFD0546002845D159
:10333000C9F3080944B1C7F307120AF809200123A9
:10334000F3703BE0FBB2E6E71AF9092022F00F0226
:10335000C7F303273A43D2B2EFE7016A01EB142126
:10336000FFF7CFFD054648BB06F13000640004F4CA
:10337000FF74B9B22044FFF7B9FB0123F3701DE0DD
:10338000016A01EBD411FFF7BCFD0546B0B927F087
:10339000704706F13003A10001F4FE715C1820466D
:1033A000FFF799FB00F0704139432046FFF7A2FB7D
:1033B0000123F37002E0022500E002252846BDE863
:1033C000F087F8B50668012953D973698B4252D941
:1033D0000C463378022B2BD0032B39D0012B01D094
:1033E000012047E001EB5105316A01EB55213046E0
:1033F000FFF787FD002840D16F1CC5F30805354451
:1034000095F83050316A01EB57213046FFF779FDCE
:10341000B0BBC7F30803334493F8300045EA0020FB
:1034200014F0010F01D0000924E0C0F30B0021E0EB
:10343000316A01EB14213046FFF763FD18BB06F13A
:103440003000610001F4FF710844FFF73FFB11E019
:10345000316A01EBD4113046FFF753FDB0B9303675
:10346000A10001F4FE703044FFF735FB20F07040FE
:1034700000E00120F8BD0120FCE74FF0FF30F9E744
:103480004FF0FF30F6E74FF0FF30F3E74FF0FF303B
:10349000F0E72DE9F0410768B1F5001F3BD2064681
:1034A0000D4611F01F0F39D1716184681CB93B784A
:1034B000022B00D97C6A94B93B89B3EB551F2FD9F5
:1034C0007B6AF361B461F36993B303EB5523F36152
:1034D0003037C5F308053D44356200201CE0B7F8DD
:1034E0000A804FEA482845450FD321463046FFF76A
:1034F00068FF0446B0F1FF3F14D0012814D97B695E
:10350000834213D9A5EB0805EDE721463846FFF7BE
:10351000DBFBF061D6E70220BDE8F0810220FBE78B
:103520000220F9E70120F7E70220F5E70220F3E7A0
:103530000220F1E72DE9F04107460668884631B9D7
:10354000F5688DB17369AB420FD801250DE0FFF727
:1035500038FF0346012847D9B0F1FF3F49D07269CF
:10356000824246D8454600E001252C460CE0214623
:103570003846FFF726FF034670B1012839D0B0F175
:10358000FF3F36D0AC4233D001347369A342EED84A
:10359000012D2BD90224EAE74FF0FF3221463046B5
:1035A000FFF78AFE034610B9B8F1000F0ED1A3B998
:1035B000F46032697369023B9A4201D8013A326180
:1035C000337943F001033371234612E0224641462A
:1035D0003046FFF771FE0346E9E7012B01D00123D6
:1035E00007E04FF0FF3304E0012302E0002300E096
:1035F00000231846BDE8F081F8B50E46056801299C
:103600002ED9074611466B69B3422CD952B14FF0FF
:10361000FF322846FFF750FE844618B125E02646C3
:10362000A24222D931463846FFF7CBFE0446F0B11C
:1036300001281FD0B0F1FF3F1FD00022314628469D
:10364000FFF73AFE844680B92B696A69911E8B4266
:10365000E5D201332B612B7943F001032B71DEE7B7
:103660004FF0020C01E04FF0020C6046F8BD4FF045
:10367000000CFAE74FF0020CF7E74FF0010CF4E70B
:103680002DE9F84306684569C369002B6ED02035E3
:10369000B5F5001F6CD288460446C5F308073FB94C
:1036A0000133C361816979B93389B3EB551F07D9F8
:1036B000656106F130033B4423620020BDE8F883D6
:1036C0000023C3610420F9E77389013B13EA552302
:1036D000EED1FFF776FE814601284BD9B0F1FF3FCE
:1036E0004AD07369834239D8B8F1000F11D0A1696B
:1036F0002046FFF71FFF814600283FD001283FD01A
:10370000B0F1FF3F3ED03046FFF7D1FB28B101209A
:10371000D4E70023E3610420D0E74FF400720021D6
:1037200006F13000FFF7F9F949463046FFF7CCFAC9
:10373000F0624FF00008738998450BD20123F370B3
:103740003046FFF7B4FBF8B908F10108F36A01331A
:10375000F362F0E7F36AA3EB0803F362C4F818908E
:1037600049463046FFF7B0FAE061A1E70420A5E73B
:103770000420A3E70220A1E701209FE707209DE79F
:1037800002209BE7012099E7012097E770B50446E6
:1037900006680021FFF77DFE054640B1284670BD52
:1037A00000212046FFF76CFF05460028F6D1E169AD
:1037B0003046FFF7A6FB05460028EFD1206A0378C4
:1037C0007BB1C37A03F03F03A371C37A13F0080FF0
:1037D000E6D10B2204F12401FFF7A4F90028DFD180
:1037E000DCE70425DAE730B583B0044601910568CB
:1037F00001E001330193019B1A782F2AF9D05C2A4A
:10380000F7D00022A2601B781F2B1ED901A92046E9
:10381000FFF79EFA034600BB2046FFF7B7FF94F878
:103820002F200346E0B912F0040F16D1A37913F04C
:10383000100F1CD005F130016369C3F3080319446C
:103840002846FFF75EFAA060E0E7802384F82F3077
:1038500011462046FFF71DFE0346184603B030BD53
:103860000428FAD112F0040FF7D10523F5E7052358
:10387000F3E7F8B504460F4606680021FFF709FE96
:103880000346C0B9002508E00135BD4213D001212F
:103890002046FFF7F5FE034668B9E1693046FFF7B9
:1038A00030FB034638B9226A1278E52AECD0002AA8
:1038B000EAD00025EBE7042B01D01846F8BD07231A
:1038C000FBE770B5044606680121FFF7D2FF054605
:1038D00008B1284670BDE1693046FFF712FB054686
:1038E0000028F6D120220021206AFFF716F90B22CA
:1038F00004F12401206AFFF707F90123F370E8E7D8
:1039000070B50446FFF7D3FA054648B92378032B70
:1039100008D0002211466078FFF7CCF800B10125ED
:10392000284670BD2379012BF3D104F130064FF402
:10393000007200213046FFF7F0F84AF6552104F2F4
:103940002E20FFF7D3F80F493046FFF7D3F80E4982
:1039500004F50570FFF7CEF8216904F50670FFF74E
:10396000C9F8E16804F50770FFF7C4F8E2690132AD
:10397000E262012331466078FFF790F8002323715B
:10398000C7E700BF525261417272416170B584B0A5
:1039900001900091164604A840F8041DFFF73EFA76
:1039A000041E1EDB114B03EB84031D6A25B1284660
:1039B000FFF76CF900232B70019B0BB100221A70EA
:1039C000019B0A4800EB8400036263B1012E02D020
:1039D000002004B070BD002201A96846FFF7EAFA92
:1039E000F7E70B20F5E70020F3E700BFC000002059
:1039F0002DE9F04391B00191002800F00B810546BC
:103A0000164602F03F073A4603A901A8FFF7D2FA8B
:103A1000044630B10CB100232B60204611B0BDE844
:103A2000F083039B0493019904A8FFF7DCFE04468E
:103A300060B99DF93F30002B51DB37F0010314BF13
:103A40000121002104A8FFF785F8044616F01C0F99
:103A50005BD0002C4FD0042C43D047F00807002C3B
:103A600062D117F0080F5FD0FCF720FE0646014632
:103A70000C980E30FFF73EF831460C981630FFF7E1
:103A800039F80C9B2022DA72039EDDF83080414623
:103A90003046FFF736F98146002241463046FFF7AF
:103AA00043F900210C981C30FFF724F8039B0122F6
:103AB000DA70B9F1000F37D0039BDE6A0022494665
:103AC00004A8FFF799FD044670BB31460398FFF741
:103AD00018FA044609F1FF33039AD36024E0062460
:103AE000B4E7FFF771F808B91224B6E704A8FFF7A6
:103AF000E8FE0446B1E79DF8163013F0110F12D11D
:103B000016F0040FABD008240EE06CB99DF8163007
:103B100013F0100F4CD116F0020F05D013F0010F67
:103B200002D0072416E00724A4B917F0080F01D02B
:103B300047F04007039BDB6A6B620C9BAB6237F07C
:103B4000010314BF0121002104A8FFF74DF82861EB
:103B500000285DD0002C7FF45DAF039EDDF830803F
:103B600041463046FFF7CDF8A86008F11C00FEF78B
:103B7000B2FFE8600021E9622E60F388AB802F7508
:103B800069752962A96105F130084FF40072404659
:103B9000FEF7C3FF17F0200F3FF43CAFEE68002E96
:103BA0003FF438AFAE61039B5F897F02A96805E0EF
:103BB0000424CFE7B1F1FF3F0BD0F61B5CB9BE4246
:103BC00009D92846FFF7FDFB01460128F2D8022457
:103BD000F0E70124F1E7E961002C7FF41BAFC6F3A5
:103BE0000803002B3FF416AF039F3846FFF76CF82D
:103BF00008B902240FE700EB56222A62012341464E
:103C00007878FEF73FFF00283FF404AF012402E775
:103C10000224FFE6092400E72DE9F04F85B00446B1
:103C20008846154699460023C9F80030009003A93C
:103C3000FFF723F90746002842D1677D002F3FD1C7
:103C4000237D13F0020F00F0C880A369EB42C0F09F
:103C50009A80DD4397E0E36A002B35D02046FFF7DA
:103C60003FF8002800F0B480012832D0B0F1FF3FC7
:103C700032D0E061A36803B9A06094F91430002B3E
:103C80002DDB039B0193E1691846FFF71DF882467F
:103C9000002835D0B2445FEA552B49D006EB0B0320
:103CA000019A5289934201D9A2EB060B5B46524618
:103CB000414601984078FEF7F1FE20B30127677571
:103CC000384605B0BDE8F08FE1690098FFF732FC97
:103CD000C7E702276775F3E701276775F0E7012358
:103CE000226A04F1300103984078FEF7D7FE20B92C
:103CF000237D03F07F032375C3E701276775DFE7A3
:103D000002276775DCE7216AA1EB0A01594502D356
:103D10004FEA4B2628E04FF4007208EB412104F1F2
:103D20003000FEF7F1FE237D03F07F032375EFE7FC
:103D3000236A534503D0A269E3689A423BD3C4F88F
:103D400020A0A369C3F30803C3F50076B54200D2EF
:103D50002E4604F13000324641461844FEF7D4FEA8
:103D6000237D63F07F032375B044A3693344A361CB
:103D7000E268934238BF1346E360D9F80030334419
:103D8000C9F80030AD1B1DB3A169C1F30803002BB6
:103D9000D7D1039B5E89013E16EA51267FF46DAFB1
:103DA00000297FF458AFA06800287FF45AAF00982C
:103DB000FFF7C0FB55E70123524604F1300101989B
:103DC0004078FEF75FFE0028B9D00127677577E7D6
:103DD000237D43F04003237572E7072770E770B532
:103DE00082B004460D460A290DD06368002B08DB1B
:103DF0005E1C23441D733C2E09DC6660A3680133FE
:103E0000A36002B070BD0D21FFF7E9FFEDE701AB44
:103E1000324604F10C012068FFF7FEFE019B9E4232
:103E200002D04FF0FF36E8E70026E6E74268002AB6
:103E300010DB10B582B0044601AB00F10C01006844
:103E4000FFF7EAFE48B96268019B9A4208D1A06870
:103E500002B010BD4FF0FF3070474FF0FF30F7E772
:103E60004FF0FF30F4E770B582B0044601A9FFF7C8
:103E700004F8034678B9227D12F0400F0BD012F0FF
:103E8000800F0BD1FCF712FC0646616A0198FFF720
:103E900038F8034680B1184602B070BD0123226A8B
:103EA00004F1300101984078FEF7F8FD48BB237D0E
:103EB00003F07F032375E5E7A56AEB7A43F020035F
:103EC000EB72A26829462068FEF72EFFE16805F133
:103ED0001C00FEF70FFE314605F11600FEF70AFE44
:103EE000002105F11200FEF701FE019B0122DA70AC
:103EF0000198FFF705FD0346227D22F0400222755E
:103F0000C9E70123C7E72DE9F04F85B004460F4606
:103F1000064603A9FEF7B1FF054600B9657D6DB9F8
:103F2000E36A002B00F08D80B7F1FF3F0AD0E6680E
:103F3000BE4200D33E46A661002E43D1284605B0BE
:103F4000BDE8F08F1A1D0192D3F800B0D4F808A094
:103F5000BAF1000F2AD04FF0020909F102095746C1
:103F60004FF0000808F1010839463046FFF729FAFA
:103F7000012815D9B0F1FF3F15D07B1C07468342BD
:103F8000F0D0CB4506D3019A134643F8088BC2F80C
:103F900004A00193039B5B69834209D98246DCE755
:103FA00002256575CAE701256575C7E74FF0020967
:103FB000E36AC3F80090D94500F2F8800023019A23
:103FC0001360BBE706F1FF3949462046FEF788FE3D
:103FD0000146E061039F3846FEF776FE8046D8B181
:103FE0007989013901EA59218844C6F30806002E6F
:103FF000A4D0226A4245A1D094F91430002B0EDBE4
:104000000123424604F1300103984078FEF73AFD5F
:10401000A0B10125657591E7022565758EE701233D
:1040200004F130017878FEF739FD20B9237D03F0E3
:104030007F032375E4E7012565757FE7C4F82080D9
:104040007CE7E368BB4204D2227D12F0020F00D16C
:104050001F46A3690022A261002F6DD0039AB2F817
:104060000A904FEA49297BB17A1EB2FBF9F2013B73
:10407000B3FBF9F18A4207D3C9F100021340A361EF
:10408000FF1AD4F81C8006E0D4F80880B8F1000FBD
:1040900005D0C4F81C80B8F1000F23D14EE00021F8
:1040A0002046FFF747FA8046012804D0B0F1FF3FD1
:1040B00004D0A060EDE7022565753FE70125657531
:1040C0003CE741463046FFF77CF98046B8F1FF3FB8
:1040D00029D0B8F1010F29D9039B5B69434525D944
:1040E000C4F81C804F4510D9A7EB0907A3694B44BE
:1040F000A361237D13F0020FE3D041463046FFF762
:1041000019FA80460028E1D10027A3693B44A36146
:10411000C7F30803A3B341460398FEF7D5FD40B1AA
:1041200000EB57280AE00125657507E7022565754C
:1041300004E70225657501E74FF00008A369E2680E
:10414000934204D9E360227D42F040022275C3F31A
:104150000803002B3FF4F2AE226A42453FF4EEAE74
:1041600094F91430002B0EDB0123424604F1300198
:1041700003984078FEF786FCA8B9C4F82080DDE6F5
:104180004FF00008DAE7012304F13001039840788A
:10419000FEF784FC20B9237D03F07F032375E3E75A
:1041A00001256575CAE601256575C7E61125C5E6D1
:1041B00010B594B0044601A8FEF75AFE03E001349E
:1041C00001A8FFF70CFE21780029F8D101A8FFF71C
:1041D0002DFE14B010BD0000104B5B7ADBB930B47B
:1041E0000E4B5D7AEDB200245C555D7A03EB8505DC
:1041F0006860587A184402725A7AD2B2501CC0B21F
:10420000587230320A703A234B702F238B70CC7067
:10421000204630BC70470120704700BFE8000020F6
:1042200008B50022FFF7D8FF08BD000000B587B031
:104230008DF80F003223009301230DF117020DF1C9
:104240000F010448FDF7ADFB9DF8170007B05DF8BE
:1042500004FB00BFA408002070B50646FCF77AFEF8
:104260000546FF20FFF7E2FF0446FF2804D0FCF7D5
:1042700071FE401BB042F4D3FF2C14BF002001207C
:1042800070BD70B506460D46002404E0FF20FFF720
:10429000CDFF30550134AC42F8D370BD70B5064641
:1042A0000D46002403E0305DFFF7C0FF0134AC424F
:1042B000F9D370BD38B505460C464FF4FA70FFF7D8
:1042C000CBFF034608B9184638BD2046FFF7AEFFBE
:1042D000FD2C13D04FF400712846FFF7DFFFFF20BD
:1042E000FFF7A4FFFF20FFF7A1FFFF20FFF79EFFCE
:1042F00000F01F00052803D00023E4E70123E2E7D4
:104300000123E0E708B5012210210348FCF78AFFEA
:10431000FF20FFF78BFF08BD0000024010B5002210
:1043200010210948FCF77EFFFF20FFF77FFF4FF4C5
:10433000FA70FFF791FF10B10124204610BD04462A
:10434000FFF7E0FFF9E700BF0000024038B5044680
:104350000D4610F0800F2CD10C2C04D0FFF7D2FFAB
:10436000FFF7DCFFB0B344F04000FFF75FFF280E1B
:10437000FFF75CFFC5F30740FFF758FFC5F30720C1
:10438000FFF754FFE8B2FFF751FFDCB10120082C22
:104390001AD0FFF74BFF0C2C18D00A24FF20FFF790
:1043A00045FF10F0800F03D0631E13F0FF04F5D11A
:1043B00038BD00F07F0400213720FFF7C7FF012838
:1043C000F6D8C9E79520E2E78720E2E7FF20FFF76C
:1043D0002DFFE2E7FF20EBE710B50446FCF7BAFD3E
:1043E000024B1860024B1C6010BD00BF740C002013
:1043F000780C002008B5FCF7ADFD054B1B68C01A12
:10440000044B1B6898422CBF0020012008BD00BF50
:10441000740C0020780C002070B505460E46C820AC
:10442000FFF7DAFFFF20FFF701FF0446FF2803D163
:10443000FFF7E0FF0028F5D1FE2C01D0002070BD71
:1044400031462846FFF71DFFFF20FFF7EFFEFF2054
:10445000FFF7ECFE0120F2E7002840F0A180514B6D
:104460001B7813F0020F08D170B582B04E4B1B6859
:104470004FF480721A620A2408E04A4B1878C0B2DE
:104480007047FF20FFF7D2FE013CE4B2002CF8D1C8
:1044900000210846FFF75AFF0546012813D0434B79
:1044A0001C70FFF72FFF002C76D03F4B1B681022AB
:1044B0001A623C4A137803F0FE031370394B1878E4
:1044C000C0B202B070BD4FF47A70FFF785FF4FF4B1
:1044D000D5710820FFF73AFF01283BD1254608E0B7
:1044E000FF20FFF7A3FE02AB2B4403F8040C0135B9
:1044F000EDB2032DF4D99DF80630012BCFD19DF8F4
:104500000730AA2BCBD1FFF775FF30B14FF08041B8
:10451000A920FFF71BFF0028F5D1FFF76BFF00284C
:10452000BDD000213A20FFF711FF054648B1B6E79C
:10453000FF20FFF77BFE02AB2B4403F8040C013590
:10454000EDB2032DF4D99DF8043013F0400F21D0C3
:104550000C24A4E70021A920FFF7F8FE012816D9B2
:104560002E46FFF747FF28B100212846FFF7EEFE51
:104570000028F6D1FFF73EFF002890D04FF40071DD
:104580001020FFF7E3FE002889D1344687E7022692
:10459000A925E6E7042482E7024B01221A708DE781
:1045A0000120704734000020A4080020F4000020FF
:1045B00018B9034B1878C0B270470120704700BF8C
:1045C00034000020002839D138B50D461C46002B98
:1045D00036D01D4B1B7813F0010F33D11B4B1B78CA
:1045E00013F0080F00D15202012C18D011461220EE
:1045F000FFF7ACFE68B94FF400712846FFF70CFFD7
:1046000018B105F50075013CF5D100210C20FFF72C
:104610009DFEFFF777FE201C18BF012038BD114614
:104620001120FFF793FE0028F3D14FF400712846C4
:10463000FFF7F2FE0028ECD00024EAE704207047E0
:104640000420EBE70320E9E734000020F400002019
:10465000002848D170B50D4616461C46002B44D0A4
:10466000254B1B7813F0010F41D1234B1B7813F01E
:10467000040F3ED1214B1B7813F0080F00D15602D6
:10468000012C1BD013F0060F26D131461920FFF75D
:104690005DFE68B9FC212846FFF70CFE18B105F550
:1046A0000075013CF6D1FD210020FFF703FEC0B1EB
:1046B000FFF728FE201C18BF012070BD31461820CE
:1046C000FFF744FE0028F3D1FE212846FFF7F2FD54
:1046D0000028EDD00024EBE721469720FFF736FEB7
:1046E000D3E70124E4E7042070470420E5E7032032
:1046F000E3E70220E1E700BF34000020F4000020DF
:1047000030B585B0002840F0058103468348007825
:1047100010F0010F40F000811546042900F2EE80F0
:10472000DFE811F005000C00EC005100AC00FFF7D1
:10473000F5FD002840F0E4800124A5E000210920D7
:10474000FFF704FE08B101249EE010216846FFF740
:1047500063FE002800F0D6809DF800309B09012BF5
:1047600020D09DF8052002F00F029DF80A3002EBE0
:10477000D3129DF809305B0003F006031A449DF83C
:1047800008109DF807309B0003EB91139DF806106D
:10479000890201F440610B440133073A93402B60D6
:1047A000002471E09DF809309DF8082003EB0223F6
:1047B0009DF80720120402F47C12134401339B027B
:1047C0002B60002460E0564B1B7813F0040F20D0C0
:1047D00000218D20FFF7BAFD08B1012454E0FF202D
:1047E000FFF724FD10216846FFF716FE78B9012473
:1047F0004AE0FF20FFF71AFD013CE4B2002CF8D19B
:104800009DF80A301A09102393402B603CE03024B5
:10481000F4E700210920FFF799FD08B1012433E0F6
:1048200010216846FFF7F8FD00286DD03C4B1B783F
:1048300013F0020F11D09DF80A305B0003F07E03E5
:104840009DF80B2003EBD21301339DF80D20920944
:10485000013A93402B60002416E09DF80A30C3F320
:1048600084029DF80B10CB0003F0180303EB5113E7
:10487000013302FB03332B60002405E0284A127841
:1048800012F0060F05D10124FFF73CFD204605B0CC
:1048900030BD6A460B211846FFF732FF0446A8BB1D
:1048A0009DF800309B0904D19DF80A3013F0400FA9
:1048B0002ED029686D681A4B1B7813F0080F01D1B0
:1048C00049026D022020FFF741FD08B10124DBE71A
:1048D00029462120FFF73AFD08B10124D4E7002141
:1048E0002620FFF733FD08B10124CDE747F2305011
:1048F000FFF7B2FC0028C7D10124C5E70424C3E7B1
:104900000024C1E70124BFE70124BDE70124BBE780
:104910000124B9E70424B9E70324B7E734000020F1
:10492000F4000020F0B59BB004460E46424D0FCD7A
:1049300030607160B260F36007CD30617161B26167
:104940003046FBF7D7FD844637183C4D0FCD46F86F
:104950000C007960BA60FB6007CD38617961BA619B
:104960002A88AB78BA83BB776422002101A800F0C3
:10497000FBF8E37C8DF80430237D8DF80530B02101
:104980008DF80610637D8DF80730A37D8DF8083013
:104990002E228DF80920237E8DF80A30637E8DF853
:1049A0000B30A37E8DF80C30E37E8DF80D30237F25
:1049B0008DF80E3027238DF80F30A07F8DF8100072
:1049C0002C208DF8110094F820008DF8120094F836
:1049D00021008DF8130094F822008DF814008DF852
:1049E000151094F823108DF8161094F824108DF8F3
:1049F00017108DF8182094F826208DF8192094F8B7
:104A000027208DF81A2094F828208DF81B2094F880
:104A100029208DF81C2094F82A208DF81D208DF86F
:104A20001E3094F82C308DF81F3001A9304600F06C
:104A300073F91BB0F0BD00BF505B00086C5B000851
:104A4000F0B5964600261327B44612E0C35DA3F1E5
:104A500030020024012303E003EB83056B000134E3
:104A6000C6F10805A542F7DC0AB103FB02CC013709
:104A70000136082E04DC172FE8D10137013EF7E795
:104A8000837F532B05D08C4506DAF44506DC0020E5
:104A900003E0CCF1000CF6E70020F0BD0120FCE7BC
:104AA000F0B5964600262027B44612E0C35DA3F178
:104AB00030020024012303E003EB83056B00013483
:104AC000C6F10905A542F7DC0AB103FB02CC0137A8
:104AD0000136092E04DC252FE8D10137013EF7E726
:104AE00090F82C30572B05D08C4506DAF44506DCBF
:104AF000002003E0CCF1000CF6E70020F0BD01201F
:104B0000FCE70000014B1868704700BF3800002028
:104B100070B50D4E0D4CA41BA4100025A54209D163
:104B20000B4E0C4C00F01AFFA41BA4100025A5424C
:104B300005D170BD56F8253098470135EEE756F897
:104B4000253098470135F2E72C5C00082C5C000802
:104B50002C5C0008305C0008024B0146186800F02D
:104B600059B800BF3800002002440346934200D1E8
:104B7000704703F8011BF9E738B50546002945D011
:104B800051F8043C0C1F002BB8BFE41800F09EF94C
:104B90001F4A1368104633B9636014602846BDE8A5
:104BA000384000F094B9A3420CD9216862189342AE
:104BB00004BF1A685B68636004BF52182260046017
:104BC000ECE713465A680AB1A242FAD91968581894
:104BD000A0420BD120680144581882421960DDD1EF
:104BE000106852685A6001441960D7E702D90C2353
:104BF0002B60D3E7206821188A4204BF11685268ED
:104C0000626004BF091821605C60C7E738BD00BF5F
:104C1000F800002070B5CD1C25F0030508350C2DDB
:104C200038BF0C25002D064601DBA94203D90C2311
:104C30003360002070BD00F049F9214A1468214614
:104C400091B9204C23681BB9304600F055F820601C
:104C50002946304600F050F8431C24D10C23336021
:104C6000304600F034F9E4E70B685B1B18D40B2BDB
:104C70000FD90B60CD50CC18304600F028F904F164
:104C80000B00231D20F00700C31AD3D05A42E25074
:104C9000D0E78C424B6816BF636013600C46EBE7AD
:104CA0000C464968CCE7C41C24F00304A04205D09C
:104CB000211A304600F020F80130CFD02560DBE724
:104CC000F8000020FC0000200FB40A4B13B51C684C
:104CD00024B1A36913B9204600F06EF805AB049A1D
:104CE000A1680193204600F01DF902B0BDE8104014
:104CF00004B070473800002038B5064C0023054644
:104D000008462360FBF79AFC431C02D1236803B1D9
:104D10002B6038BD7C0C002010B503461A785C1C53
:104D20003AB9013B11F8012B03F8012F002AF9D100
:104D300010BD2346F2E70000002310B50446C0E989
:104D40000033836081814366C281C0E9043383619B
:104D5000194608225C30FFF707FF054B6362054BDD
:104D6000A362054BE362054B2462236310BD00BFC1
:104D70005D5400087F540008B7540008DB54000855
:104D8000014900F085B800BFB557000870B54A1E4C
:104D9000682555430E4605F17401FFF73BFF0446B5
:104DA00040B10021C0E900160C30A06005F1680296
:104DB000FFF7DAFE204670BD836910B5044633BBA9
:104DC000C0E912330365124B124A1B688262984293
:104DD00004BF0123836100F01FF86060204600F0EB
:104DE0001BF8A060204600F017F80022E0600421C4
:104DF0006068FFF7A1FF01220921A068FFF79CFF6F
:104E000002221221E068FFF797FF0123A36110BD82
:104E10008C5B0008814D0008F8B51B4B1E68B36918
:104E2000074613B93046FFF7C7FF4836D6E90134C5
:104E3000013B03D5336833B13668F7E7B4F90C505A
:104E40006DB16834F4E704213846FFF79FFF306006
:104E50000028F1D10C233B6004462046F8BD0B4BE3
:104E60006566C4E90055A560C4E90335C4E9055584
:104E70000822294604F15C00FFF776FEC4E90D55CF
:104E8000C4E91255E9E700BF8C5B00080100FFFF91
:104E90002DE9F8438046894600F14804002614B9FC
:104EA0003046BDE8F883D4E90175013F01D5246897
:104EB000F5E7AB89012B07D9B5F90E30013303D0E3
:104EC00029464046C84706436835EEE770477047B5
:104ED0009368013B002B10B4936008DA9469A342F5
:104EE00001DB0A2903D15DF8044B00F0FBBA13681B
:104EF000581C1060197008465DF8044B7047F8B5EF
:104F000006460F461446D518AC4201D1002007E0F2
:104F10003A4614F8011B3046FFF7DAFF431CF3D181
:104F2000F8BD00002DE9F04F9DB00C4617460393E5
:104F3000064618B183690BB9FFF73EFF7B4B9C42D5
:104F400057D17468A38918075DD52369002B5AD0FF
:104F50000023099320238DF8293030238DF82A303F
:104F60004FF0010BB846454615F8013B0BB1252B18
:104F700054D1B8EB070A0BD053463A462146304687
:104F8000FFF7BDFF013000F0C280099B5344099335
:104F900098F80030002B00F0BA8000234FF0FF3269
:104FA000CDE90523049307938DF853301A93A8464F
:104FB000052218F8011B5E48FBF7AAFA049B78BB90
:104FC000D90644BF20228DF853201A0744BF2B2254
:104FD0008DF853202A782A2A2AD0079AA84600203A
:104FE0000A25414611F8013B303B092B69D960B3D2
:104FF00024E0504B9C4201D1B468A3E74E4B9C4245
:1050000008BFF4689EE72146304600F0CFFA00283A
:105010009ED04FF0FF301DB0BDE8F08FA846A2E74C
:10502000434A801A0BFA00F0184304904546BEE745
:10503000039A111D12680391002A01DB079204E014
:10504000524243F002030792049398F800302E2B4B
:105050000ED198F801302A2B38D1039B1A1D1B68FA
:105060000392002BB8BF4FF0FF3308F102080593FD
:10507000324D98F8001003222846FBF749FA40B158
:105080004023401B03FA00F0049B034308F101088E
:10509000049398F800102A488DF82810062208F189
:1050A0000107FBF735FA002837D0264B1BBB039BC3
:1050B000073323F0070308330393099B4B440993F9
:1050C00050E705FB0232012088468AE7002308F1F9
:1050D0000108059319460A25404610F8012B303A7D
:1050E000092A03D9002BC3D00591C1E705FB012193
:1050F00001238046F0E703AB00932246124B04A93C
:105100003046AFF30080B0F1FF3F8146D5D1A3898F
:105110005B063FF57EAF09987DE703AB009322461F
:10512000094B04A9304600F087F8ECE7B05B0008B3
:10513000F05B0008D05B0008905B0008F65B00089D
:10514000FA5B000800000000FF4E00082DE9F04760
:1051500091461F468A680B69DDF820809342B8BFEC
:105160001346C9F8003091F8432006460C4612B1A8
:105170000133C9F800302368990642BFD9F80030DE
:105180000233C9F80030256815F0060507D104F18F
:10519000190AE368D9F800209B1AAB4228DC94F87E
:1051A00043302268003318BF012392062DD404F146
:1051B000430239463046C047013020D02368E568B5
:1051C000D9F8002003F00603042B08BFAD1AA3682A
:1051D00022690CBF25EAE57500259342C4BF9B1ADE
:1051E000ED184FF000091A344D451AD1002008E09F
:1051F0000123524639463046C047013003D14FF0B3
:10520000FF30BDE8F0870135C3E7E1185A1C3020B4
:1052100081F84300224494F8451082F84310023389
:10522000C5E70123224639463046C0470130E6D063
:1052300009F10109D8E700002DE9F04301F1430C21
:105240000C46097E85B06E291746064698460C9A8C
:1052500000F0B38022D8632936D00AD8002900F0A4
:10526000B980582900F0838004F1420584F8421087
:1052700032E0642901D06929F6D120681368050657
:1052800003F104012AD51B681160002B03DA2D22DB
:105290005B4284F843206F480A2239E0732900F00A
:1052A0009D8008D86F2920D07029DDD1236843F074
:1052B0002003236003E0752917D07829D4D17823FF
:1052C00084F84530644855E01368191D1B68116067
:1052D00004F1420584F8423001238CE01B68116020
:1052E00010F0400F18BF1BB2CFE713682568181DD8
:1052F0001060280601D51B6802E06806FBD51B88F4
:1053000054486F2914BF0A220822002184F8431050
:105310006568A560002DC0F29580216821F0040128
:105320002160002B3DD1002D40F08E806546082A7B
:105330000BD12368DB0708D5236962689A42DEBF78
:10534000302305F8013C05F1FF35ACEB0503236183
:10535000CDF800803B4603AA21463046FFF7F6FE13
:1053600001304DD14FF0FF3005B0BDE8F083394832
:1053700084F84510136821681D1D1B6815600A0616
:105380000BD5CA0744BF41F0200121601BB9226838
:1053900022F0200222601022B7E74D0648BF9BB2E0
:1053A000EFE76546B3FBF2F102FB1133C35C05F88E
:1053B000013D0B460029F5D1B9E7136825686169FD
:1053C000181D106028061B6801D5196002E06A06E6
:1053D000FBD51980002323616546B9E71368191DC1
:1053E00011601D68626800212846FBF791F808B13A
:1053F000401B606063682361002384F84330A7E7A3
:1054000023692A4639463046C0470130AAD023686E
:105410009B0713D4E068039B9842B8BF1846A3E7E4
:1054200001234A4639463046C04701309AD00135FB
:10543000E368039A9B1AAB42F2DCEBE7002504F128
:105440001909F5E7002BACD1037884F8423004F158
:1054500042056CE7015C0008125C000810B50C46C0
:10546000B1F90E1000F046FA0028ABBF636DA389B6
:105470001B1823F48053ACBF6365A38110BD2DE9D5
:10548000F0411F468B89DB0505460C46164605D5BF
:1054900002230022B1F90E1000F0B6F9A389B4F985
:1054A0000E1023F48053A38132463B462846BDE8C4
:1054B000F04100F069B810B50C46B1F90E1000F0DB
:1054C000A3F9431CA38915BF606523F4805343F4FB
:1054D0008053A38118BFA38110BDB1F90E1000F055
:1054E000D3B80000F8B50E461446054618B18369D6
:1054F0000BB9FFF761FC214B9C422AD16C68A36970
:10550000A360A3891A072ED5236963B32369206892
:10551000C01A6369F6B28342374604DC2146284646
:1055200000F048F928BBA368013BA36023685A1C1C
:1055300022601E7063690130834204D0A389DB07B7
:1055400019D50A2E17D12146284600F033F990B11B
:105550000FE00B4B9C4201D1AC68D0E7094B9C4259
:1055600008BFEC68CBE72146284600F01FF800286A
:10557000CCD04FF0FF373846F8BD00BFB05B000815
:10558000D05B0008905B000838B5074C054608461C
:105590001146002222601A46FBF741F8431C02D153
:1055A000236803B12B6038BD7C0C0020324B70B5F2
:1055B0001D6806460C4625B1AB6913B92846FFF7AE
:1055C000FBFB2E4B9C420FD16C68B4F90C309AB2A5
:1055D00015072CD4D00611D40922326043F04003C1
:1055E000A3814FF0FF303EE0254B9C4201D1AC68D7
:1055F000EBE7244B9C4208BFEC68E6E7510712D565
:10560000616B41B104F14403994202D03046FFF787
:10561000B3FA00236363A38923F02403A381002347
:10562000636023692360A38943F00803A38123698E
:105630004BB9A38903F42073B3F5007F03D021464F
:10564000304600F017F9A28912F001030CD00023B4
:10565000A36063695B42A361236953B9B4F90C3059
:1056600013F08000BAD170BD920758BF6369A36080
:10567000F2E70020F7E700BF38000020B05B000829
:10568000D05B0008905B000838B5064C0023054647
:1056900008462360FAF7F0FF431C02D1236803B1E8
:1056A0002B6038BD7C0C00208A892DE9F04105462D
:1056B00010070C4658D44B68002B05DC0B6C002BF4
:1056C00002DC0020BDE8F081E66A002EF9D000235C
:1056D00012F480522F68216A2B6032D0606DA3894A
:1056E0005A0705D56368C01A636B0BB1236CC01AE7
:1056F00000230246E66A216A2846B047431CA38974
:1057000006D129681D2948D8294ACA40D60744D558
:1057100000226260D9042269226004D5421C01D1B2
:105720002B6803B96065616B2F600029C9D004F153
:105730004403994202D02846FFF71EFA0020606316
:10574000C0E701232846B047411CC8D12B68002B75
:10575000C5D01D2B01D0162B01D12F60B1E7A38935
:1057600043F04003A381ADE70F69002FA9D0930751
:105770000E6808BF4B690F6018BF0023A6EB07082F
:105780008B60B8F1000F9CDD43463A46216AA66A59
:105790002846B047002806DCA38943F04003A381D4
:1057A0004FF0FF308EE70744A8EB0008E9E700BFA1
:1057B0000100402038B50B6905460C46DBB118B135
:1057C00083690BB9FFF7F8FA0C4B9C4209D16C685E
:1057D000B4F90C307BB121462846BDE83840FFF7CC
:1057E00063BF074B9C4201D1AC68F1E7054B9C427B
:1057F00008BFEC68ECE7002038BD00BFB05B0008D4
:10580000D05B0008905B000838B5074C0546084699
:105810001146002222601A46FAF738FF431C02D1D3
:10582000236803B12B6038BD7C0C002070B50E4698
:10583000B1F90E10002996B014461D4607DA002370
:105840002B60B3891A0610D44FF480630EE06A46C9
:1058500000F062F80028F2DB019A02F47042A2F52F
:1058600000535A425A412A60EEE740230020236049
:1058700016B070BD8B8973B59D0706460C4607D5DB
:1058800004F14703236023610123636102B070BD0B
:1058900001AB6A46FFF7CAFF009905463046FFF79D
:1058A000B9F948B9B4F90C309A05EFD423F00303E1
:1058B00043F00203A381E3E70D4BB362A3892060A9
:1058C00043F08003A381009B6361019B20615BB176
:1058D000B4F90E10304600F031F828B1A38923F056
:1058E000030343F00103A381A3891D43A581CDE7F1
:1058F000814D000838B5074C054608461146002280
:1059000022601A46FAF77DFE431C02D1236803B1D8
:105910002B6038BD7C0C002038B5074C00230546B1
:10592000084611462360FAF7AAFE431C02D12368F9
:1059300003B12B6038BD00BF7C0C002038B5064C8D
:105940000023054608462360FAF79EFE431C02D159
:10595000236803B12B6038BD7C0C0020F8B500BF74
:10596000F8BC08BC9E467047F8B500BFF8BC08BC40
:045970009E46704798
:1059740000000000000000000102030406070809FB
:1059840000000000010203044355454141414143E5
:1059940045454549494941414592924F4F4F5555D7
:1059A400594F554F9C4F9E9F41494F55A5A5A6A7BA
:1059B400A8A9AAABACADAEAFB0B1B2B3B44141414A
:1059C400B8B9BABBBCBDBEBFC0C1C2C3C4C54141E6
:1059D400C8C9CACBCCCDCECFD1D14545454949491B
:1059E40049D9DADBDCDD49DF4FE14F4F4F4FE6E8C1
:1059F400E85555555959EEEFF0F1F2F3F4F5F6F791
:105A0400F8F9FAFBFCFDFEFF0100020004000800A7
:105A140010002000000000000100040010004000FD
:105A24000001000200000000426C61642C67707386
:105A3400206E6965206F646269657261207379679D
:105A44006E616C752E0A0D002B34383636363636B8
:105A540036363636000000000A0D3C4750535F438B
:105A64006865636B3E0A0D000A0D4C4F4B414C496F
:105A74005A41544F52204F50555343494C20575983
:105A84005A4E41435A4F4E412053545245464521A4
:105A94000A0D000066696C652E74787400000000BD
:105AA40041540D0041542B434D47463D310D0000F8
:105AB40041542B434D47533D000000002573000023
:105AC40041542B434E4D493D322C322C302C300D59
:105AD4000000000041542B434D474C3D22524543A6
